:1000000002308A00CF2A0000FF00030E8301A10006
:100010007F08A0000A08A7008A01A00E0408A20019
:100020007708A3007808A4007908A5007A08A6003C
:10003000831383128C308400001C20280C18352870
:100040008B1E24280B193728220884002308F70068
:100050002408F8002508F9002608FA0027088A0075
:10006000210E8300FF0E7F0E09008A1173298A1169
:1000700061280A108A100A11820728340C340134CE
:10008000063431342934323430344D3448347A34FF
:10009000003432342934343430344D3448347A34F2
:1000A000003433342934363430344D3448347A34DF
:1000B000003434342934383430344D3448347A34CC
:1000C00000348316861108308312860632088100B8
:1000D0000B118A112428403084008313000803196F
:1000E0007F280130F800F701F70B7428F80B73280C
:1000F0004A30F700F70B7A287D28800B712808001A
:100100001030C600F701FA01C30CC20C031C8E2884
:100110004408F7070318FA0A4508FA07FA0CF70C1F
:10012000F90CF80CC60B84280800F801F901F70156
:10013000FA014508031D9F2844080319B928103007
:10014000C6000310C20DC30DF70DFA0D45087A0263
:10015000031DAC2844087702031CB5284408F702A5
:10016000031CFA034508FA020314F80DF90DC60B37
:10017000A12808008E30F7004108F8004008F90077
:10018000FA01F808031DCE287908F800F9010830B3
:10019000F702F808031DCE28F701D6280310F81B34
:1001A000D528F90DF80DF703CE28F81308004108FB
:1001B000C8004508C806C81FE22803110310C11B68
:1001C000031415294108C8004408C9004008C902A1
:1001D0000319F028C81F15290308013A83001529BF
:1001E0004508C9004108C9020319FC28C81F152980
:1001F0000308013A830015294608C9004208C902CC
:1002000003190829C81F15290308013A8300152975
:100210004708C9004308C90203191429C81F152932
:100220000308013A83001529031008000030F80084
:100230001F08C73978049F000130C0006B201F15CC
:100240001F19202983161E088312AB001E08AC005C
:100250000130C0006B20C3010530C2002C08C5006E
:100260002B08C40080207908C1007808C0007908F4
:10027000C3007808C200C5016430C400802079083A
:10028000C1007808C0007908C3007808C2000330B4
:10029000C500FF30C40095207908FA007808C00036
:1002A0007908C100BA207A08B0007908AF00780850
:1002B000AE007708AD00C301C2012030C100843018
:1002C000C0003008C7002F08C6002E08C5002D0842
:1002D000C400D720031C7229851583160C108312C5
:1002E0008B128611080031080F3C031D80298511EF
:1002F00083160C1083128B128611B101892989296A
:100300008B16320881000B308F00DC308E001621F6
:10031000B10A0C108A1124283E0EF039F7000F3074
:100320000605770486000000061583160611982935
:100330008312061183160611831208000608F700BF
:10034000060E0F39F80008000610831606100F304D
:100350000605F03886008312861483168610000086
:100360008312061583160611000083129E21780859
:10037000BE000611831606110000831206158316AF
:100380000611000083129E217808BD000611831615
:1003900006110F300605860083123E0EF700F0307E
:1003A000F70577083D04F8007808BD00BD1FDA297D
:1003B0008316A729BB08031DDF290610E0290614B0
:1003C0008316061000008312861083168610000024
:1003D000831206118316061183123C0EBD000F30E6
:1003E000BD053D08BE008C213C080F39BD00BE0094
:1003F0008C2108000F3083160605860006110610B2
:100400008610831206108316061083128610831638
:10041000861083120611831606118312A8018B1B06
:10042000A8178B130F30C0006B20A81B8B1701304F
:10043000B4003408033C031C2B2A0330BE008C217B
:10044000A8018B1BA8178B130530C0006B20A81BBD
:100450008B17B40A192A0230BE008C21B40134086B
:10046000033C031C3C2A34083920B500BB01350885
:10047000BC00A421B40A2F2A8A11F72A380B412A7A
:10048000442A4030B900452AB90101303702B90782
:1004900039088038BA00BB013A08BC00A421080022
:1004A000831603178C170C140000000083128C08AD
:1004B00003199C2A0D080313B40003170F08031334
:1004C000B50003170C080313B60036080C3A0319DD
:1004D000702A063A03197E2A023A0319842A892AC5
:1004E000BB010130BC00A421A8018B1BA8178B13F2
:1004F0000230C0006B20A81B8B178F2A0130B70079
:100500000230B8003E228F2ABB011030BC00A4216B
:100510008F2A0130BB003608BC00A4218F2A340882
:1005200003178D000313350803178F008D0A031975
:100530008F0A0313502A0317031308000130B70072
:10054000B8003E22413003178D0000308F000313A6
:1005500050220130B7000230B8003E224930031764
:100560008D0000308F00031350220930B700013096
:10057000B8003E22513003178D0000308F00031366
:1005800050220930B7000230B8003E22593003171C
:100590008D0000308F00031350228A11032B840139
:1005A00083131F30830583161F129F121B08803987
:1005B0009B0007309C008312A901AA010730831613
:1005C000850083128615C0308B0483161F13831297
:1005D0001F179F1783169F1783121F1483161F124E
:1005E0009F121B08803928389B008312FA29873014
:1005F000900083160108C039013881008312B301CD
:10060000B10185119E2A831605158312051D1A2B2B
:1006100033080339013EB3000230B400A8018B1B3C
:10062000A8178B139630C0006B20A81B8B17B40B38
:100630000E2B692B831685148312851C692B0130C0
:100640003302FC3E0318692B043E6B2BB201831668
:100650000C140B3083128F00DC308E00A8018B1B32
:10066000A8178B131621A81B8B17692B7830B200A3
:1006700083160C140B3083128F00DC308E00A8011F
:100680008B1BA8178B131621A81B8B17692BC8303F
:10069000B20083160C140B3083128F00DC308E00F6
:1006A000A8018B1BA8178B131621A81B8B17692B6E
:1006B000FF30B20083160C140B3083128F00DC3035
:1006C0008E00A8018B1BA8178B131621A81B8B1754
:1006D000692B022B63000A148A140A118207262B45
:0606E000362B472B582BBE
:04400E002139FF3F16
:00000001FF
;PIC16F88
;CRC=A11A  CREATED="23-nov.-16 14:16"
